01STRUCTURED FORTRANMELTON, C      PROG/FOREI10522502700000010015080889
01FORTRAN ESSENTIALSALBERT, D      PROG/FOREI10523002760009010015""0389
01FORTRAN PROGRAMS  DARGINSKY, J   PROG/FOREI1051850222002r010015101489
01FORTRAN CODE      LANG, D        PROG/FOREI10532003840024015000091289
01APPLIED FORTRAN 77WHITE, F       PROG/FOREI10529503540024015000XX0690
02STRUCTURED COBOL  HART, M        PROG/CBLE110525003000027020000Z=1489
02COBOL-85 MADE EASYD'ANJOU, L     PROG/CBLEI1052240268802y020000071389
02ELEMENTS OF COBOL GARDINER, J    PROG/CBLEI10525253030002010015060889
02COBOL CODE SAMPLESHUGHES, A      PROG/CBLEI10523502820"""010015Q*0989
02STRUCTURED COBOL  ABE, J         PROG/CBLEI10524509940923015000121289
03ELEMENTS OF BASIC POTUSHEK, F    PROG/BASEI10723602832023015000012190
03BASIC CODE        COCKBURN, B    PROG/BASEI10727003240005010015120489
03ADVANCED BASIC    FURCHT, S      PROG/BASEI10828503420016010015010889
03STRUCTURED BASIC  TODD, C        PROG/BASEI10830003600023015000092189
03BASIC PROB SOLVINGWAGNER, R      PROG/BASEI10728003360?+X020000?+2189
04PASCAL STRUCTURES ANN, R         PROG/PASEI11233003960010010015020990
04PASCAL APPLIED    SCOLLO, L      PROG/PASEI11322002640023015000030389
