X7Y10Gas Tank            12595      010001000100WHBHM1 B0100
X8Y20Gas Cap             07599      020001000000WHBHM1 B0101
X6N30Seat                50000      001000000005WHBHM1 B0102
Y9T40Spark Plugs         02595      002001800200WHBHM1 B0103
T8N50Helmet              00385      010000000050WHBHM1 B0104
S9M60Slick 50            05999      000000500020WHBHM1 B0105
J9M70Gear Box            99999      070500000700WHBHM1 B0106
K3L80Muffler             35095      100000051000WHBHM1 B0107
L3D90Seat Belts          02995      257000002000WHBHM1 B0108
M3100Tool Box            25995      078002501500WHBHM1 B0109
D4110Carborator          05900      000501000050WHBHM1 B0110
S8120Generator           17700      001000800025WHBHM1 B0111